:020000040800F2
:10000000901500209D010008BB1E0008F31B00088E
:10001000B91E0008AD0300080D250008000000000F
:1000200000000000000000000000000005010008C2
:10003000750400080000000049010008492000087C
:10004000B7010008B7010008B7010008B7010008B0
:10005000B7010008B7010008B7010008B7010008A0
:10006000B7010008B7010008B7010008B701000890
:10007000B701000869040008B7010008B7010008CB
:10008000B7010008B7010008B7010008B701000870
:10009000B7010008B7010008B7010008770400089D
:1000A000B7010008B7010008B7010008B701000850
:1000B000CD200008B7010008B7010008B70100080B
:1000C000B7010008B7010008B7010008B701000830
:1000D000B7010008F524000801250008B701000851
:1000E000B7010008B7010008B7010008DFF810D019
:1000F00000F04AF9004800474D250008AFF30080A2
:1001000090150020224B19680868B0E8F00F80F3C2
:100110000988BFF36F8F4FF0000080F311884EF015
:100120000D0E70470000000006480068006880F36C
:10013000088862B661B6BFF34F8FBFF36F8F00DFE1
:1001400000BF00BF08ED00E0EFF30980BFF36F8F41
:100150000F4B1A6820E9F00F106008B54FF05000FF
:1001600080F31188BFF34F8FBFF36F8F02F0F0FD64
:100170004FF0000080F31188BDE808401968086856
:10018000B0E8F00F80F30988BFF36F8F704700BFAE
:1001900034000020EFF305807047000006488047D8
:1001A00006480047FEE7FEE7FEE7FEE7FEE7FEE75C
:1001B000FEE7FEE7FEE7FEE7CB200008ED000008C3
:1001C00040EA01039B0703D009E008C9121F08C0D9
:1001D000042AFAD203E011F8013B00F8013B521E59
:1001E000F9D27047D2B201E000F8012B491EFBD2D0
:1001F00070470022F6E710B513460A460446194632
:10020000FFF7F0FF204610BD80EA010210B502F0B2
:100210000043400022D04A001FD0010E01EB1261C2
:10022000C0F35600C2F3560240F4000042F400024C
:10023000A0FB022000047F39140400D0401C50EAC7
:10024000124001D44000491EC2B20C0604EBD0108B
:10025000401C4008802A02D003E0002010BD20F09E
:100260000100002900DA0020184310BD30B480EAF4
:10027000010202F0004530F0004221F0004013D0AE
:1002800090B1C30DD40DC2F31601C0F31600E41AE9
:1002900041F4000140F400027D34914201D3641C1A
:1002A00000E04900002C02DA30BC002070474FF417
:1002B00000000023914201D3891A034340084FEA0A
:1002C0004101F7D151B1914202D14FF0004105E017
:1002D00002D24FF0010101E06FF0010103EBC450C5
:1002E000284430BC00F019B896230022114600F0D3
:1002F0001DB820F00040C10DC0F3160040F400000E
:100300007F2901DA00207047962903DCC1F19601AC
:10031000C84070479639884070470029A8BF704789
:10032000401C490008BF20F00100704710B4B0FA2B
:1003300080FC00FA0CF050EA010404BF10BC7047C6
:1003400049B1CCF1200421FA04F411FA0CF118BFE0
:10035000012121430843A3EB0C01CB1D4FEA0061AF
:100360004FEA102042BF002010BC704700EBC35082
:1003700010440029A4BF10BC7047401C490008BFAE
:1003800020F0010010BC7047064C074D06E0E06805
:1003900040F0010394E8070098471034AC42F6D3CC
:1003A000FFF7A8FE0431000824310008FEE7000032
:1003B0002A4800F087FF294800F084FF00212748E1
:1003C00001F0B0F90421254801F0ACF9234D4FF4B8
:1003D000FA7029684863224C2968E089886302F032
:1003E00091FD002660611E480A21143002F02CFCA9
:1003F000607801280CD11E2002F000FC4FF400713F
:10040000184800F09FFA10B9A078401CA0706670E0
:10041000A078012806D0022806D0032806D0042898
:1004200008D00BE0208902E0608900E0E0882968BC
:10043000486303E02968A0894863A670E078012832
:10044000D1D12079FFF750FF2169FFF7DDFE0221AE
:1004500001F0CCFD01F0B0FDE670C4E7840300209C
:1004600018000020000C0140014800F079B800009D
:100470004003002070474FF4007000F067B972B677
:10048000FEE710B590F821100022022905D00421C2
:10049000816380F82020012010BD01680B6823F0E3
:1004A0000E030B6001680B6823F001030B6090F8EA
:1004B0004030C46B012101FA03F3636080F821101E
:1004C00080F82020104610BD10B590F821100024AF
:1004D000022903D00421816301243DE001680A68F8
:1004E00022F00E020A6001680A6822F001020A6026
:1004F0001A4A0168914201D1012121E0174A1432C0
:10050000914201D110211BE0144A2832914201D1BD
:10051000891515E0114A3C32914201D189140FE04E
:100520000E4A5032914202D14FF4803108E00B4A1A
:100530006432914202D14FF4801101E04FF080719A
:10054000064A083A5160012180F82110002180F804
:100550002010416B01B18847204610BD08000240C1
:100560002DE9F05FC16B0C6801680B68D0F840C0E2
:10057000042202FA0CF2494DDFF824A1494E4A4FF9
:10058000DFF828B1DFF828E122422CD05A072AD51B
:100590000A68920603D40A6822F004020A6001681D
:1005A000A94201D1042219E0514501D1402215E0B0
:1005B000B14202D14FF4806210E0B94202D14FF44F
:1005C00080420BE0594502D14FF4802206E071458C
:1005D00002D14FF4800201E04FF080622F490839C8
:1005E0004A60C16A3BE04FF0020808FA0CF818EACA
:1005F000040F4FF000094FF0010235D05FEA837815
:1006000032D50B689B0605D40B6823F00A030B60F8
:1006100080F821200168A94201D1022219E0514548
:1006200001D1202215E0B14202D14FF4007210E056
:10063000B94202D14FF400520BE0594502D14FF4B8
:10064000003206E0714502D14FF4001201E04FF094
:100650000072124908394A6080F82090816A0029A6
:100660001AD0BDE8F05F0847082505FA0CF52542C9
:1006700012D01B0710D50B6823F00E030B6090F807
:100680004010C36B02FA01F15960826380F82120A7
:1006900080F82090016BE2E7BDE8F09F080002407F
:1006A0001C0002403000024044000240580002405A
:1006B0006C00024030B528B308C81349142219440D
:1006C000B1FBF2F18900C1631049816302214177D6
:1006D0001A6843F6F0718A43D0E900142143D0E947
:1006E00002452C4321430469214344692143846921
:1006F00021431143196000214163012242770177B0
:10070000084630BD012030BDF8FFFDBF00000240AB
:1007100070B5044600F028F90546601C02D0044874
:100720000078044400F020F9401BA042FAD370BDC9
:1007300008000020B0F5007F05D10348417800296A
:1007400001D101214170704718000020044910B503
:100750000A68024202D00860FFF7ECFF10BD0000FB
:10076000140401402DE9F84FDFF8B891002409F195
:10077000040A0AF1040B23460F270BF1040EC9E00B
:100780000125A5402A40AA427DD1674ED1F804C078
:10079000ACEB0608B44532D014DCBCF1030F3AD000
:1007A00009DCBCF1000F2AD0BCF1010F1CD0BCF158
:1007B000020F31D11DE0BCF1110F17D0BCF1120FA7
:1007C0002AD119E0B8F5881F19D006DCB8F5803FAA
:1007D00015D0B8F5801F1FD111E0B8F5001F0ED05D
:1007E000B8F5041F18D10AE0CB6815E0CB681B1DD3
:1007F00012E0CB6808330FE0CB680C330CE08B6859
:100800002BB1012B4FF0080303D0456104E0042312
:1008100002E0056100E00023FF2A01D8064601E05E
:1008200000F104064FEA840501D9A5F12005D6F8A8
:10083000008007FA05FC28EA0C0803FA05F548EAE7
:100840000508C6F800804D68ED0062D5374DAE69E9
:1008500046F00106AE61AD6924F0030605F001051E
:100860000095334D06EB050CDCF80850A607360F53
:1008700007FA06F825EA0805DFF8B880404503D1F5
:100880004FF0000817E044E0DFF8AC80404502D1AB
:100890004FF001080FE0DFF8A480404502D14FF08F
:1008A000020808E0DFF89880404502D14FF00308C5
:1008B00001E04FF0040808FA06F848EA0508CCF809
:1008C00008804D68D9F80060ED034D4601D5164308
:1008D00000E096432E604D68DAF80060AD0355469F
:1008E00001D5164300E096432E604D68DBF80060AA
:1008F000ED025D4601D5164300E096432E604D683B
:10090000DEF80060AD02754601D5164300E096435F
:100910002E60641C0D682A46E5407FF431AFBDE8C7
:10092000F88F000000040140000011100010024088
:100930000000014000080140000C0140001001408F
:10094000001401408068084000D001207047C26850
:1009500021EA02030A4043EA0241016170470AB1F9
:10096000016170470904FBE7014880687047000097
:1009700008000020024881680278114481607047B5
:1009800008000020074810B5016841F0100101601F
:10099000032000F093F80F2000F006F800F03CF878
:1009A000002010BD0020024000B5014687B00022A3
:1009B0001C2000F063F81C2000F052F81348C169B5
:1009C00041F00101C161C06905A900F00100069074
:1009D000684600F01BF900F039F90D494FF08042EC
:1009E000B0FBF1F10B48491E0260416040F2E73272
:1009F0000021C0E90321816000F022FC10B1012038
:100A000007B000BD034800F085FCF9E70010024084
:100A100040420F00540400200F4808B5816941F09E
:100A200001018161816901F001010091C16941F019
:100A30008051C161C069002200F0805000900F21F8
:100A4000901E00F01BF80548416821F0E06141F07C
:100A50000071416008BD000000100240000001402C
:100A6000002809DB00F01F020121914040098000AD
:100A700000F1E020C0F8001170470000F0B40E4B08
:100A80001B680C46C3F30223C3F10705042D00D9EC
:100A90000425191D072901D2002300E0DB1E0126D1
:100AA00006FA05F1491E214099409E40761E1640E7
:100AB0003143F0BC01F02BBD0CED00E0064900F025
:100AC000070208684FF6FF03184040EA0220034A75
:100AD00010430860704700000CED00E00000FA05CC
:100AE0002DE9F0470F46050061D0434E306800F015
:100AF0000700B84209D2306820F007003843306060
:100B0000306800F00700B84251D128683B4C81079B
:100B100012D5400703D5606840F4E0606060287833
:100B2000000703D5606840F4605060606068A968A1
:100B300020F0F000084360602878C00728D068687B
:100B4000012810D02168022810D0890700292EDA48
:100B5000616821F0030101436160FFF705FF8046F2
:100B600041F288390DE021688903EFE78901EDE75B
:100B7000FFF7FAFEA0EB0801494502D90320BDE8C2
:100B8000F0876068696800F00C00B0EB810FEFD16E
:100B9000306800F00700B8420BD9306820F0070039
:100BA00038433060306800F00700B84201D00120BF
:100BB000E5E72878400705D56068E96820F4E0603B
:100BC000084360602878000706D56068296920F42A
:100BD000605040EAC100606000F058F86168084A5F
:100BE000C1F30311515CC84006490860064800681B
:100BF000FFF7DAFE0020C2E70020024000100240AA
:100C0000D4300008140000200C0000200F220260E5
:100C10000C4A536803F003034360536803F0F00386
:100C20008360536803F4E063C36052684FF4E06389
:100C300003EAD20202610448006800F0070008607D
:100C4000704700000010024000200240044805499F
:100C500000684968044AC1F30221515CC8407047EA
:100C60001400002000100240E43000080448054948
:100C700000684968044AC1F3C221515CC84070470A
:100C80001400002000100240E430000812A185B0DA
:100C90000FC98DE80F0014A0144A00680490516831
:100CA000134801F00C03042B10D0082B0ED1C1F314
:100CB0008343C9031DF803000AD5516804AAC1F390
:100CC0004041515C0A4A5043B0FBF1F005B0704717
:100CD00008494843FAE7000002030405060708092B
:100CE0000A0B0C0D0E0F1010010200000010024044
:100CF00000127A0000093D002DE9F84F040070D081
:100D00002078C04DC00749D06868C0F38100012831
:100D100007D06868C0F38100022809D16868C00361
:100D200006D52868800339D560680028E7D035E00B
:100D30006068B0F5803F0BD010B1B0F5A02F11D096
:100D4000286820F480302860286820F4802002E0A1
:100D5000286840F480302860606890B1FFF704FE96
:100D600006460AE0286840F480202860F0E700BFCB
:100D7000FFF7FAFD801B642873D828688003F7D535
:100D80000CE0FFF7F1FD064605E000BFFFF7ECFDC4
:100D9000801B6428F0D828688003F7D420789A4E06
:100DA00080074FF001094FF0000839D5686810F04E
:100DB0000C0F07D06868C0F38100022809D1686869
:100DC000C00306D42868800714D52069012808D1FB
:100DD00010E02069B0B1C6F80090FFF7C5FD0746E6
:100DE00005E00AE1FFF7C0FDC01B0228C4D828684F
:100DF0008007F7D52868616920F0F80040EAC10053
:100E000028600DE0C6F80080FFF7AEFD074604E05D
:100E1000FFF7AAFDC01B022823D828688007F7D453
:100E2000207800072CD57948A169D9B1C0F8009085
:100E3000FFF79AFD074604E0FFF796FDC01B022866
:100E40000FD8686A8007F7D571484FF4FA510068E7
:100E5000B0FBF1F0009000BF0098411E0091FAD263
:100E60000EE080E0C0F80080FFF77EFD074604E05A
:100E7000FFF77AFDC01B022875D8686A8007F7D48F
:100E80002078400760D5E8690027C00008D4E869E9
:100E900040F08050E861E869012700F08050009040
:100EA0005C480168C90513D40168834641F4807128
:100EB0000160FFF759FD824606E000BFFFF754FDD1
:100EC000A0EB0A0064284ED8DBF80000C005F5D579
:100ED000E06801280AD008B1052813D0286A20F05C
:100EE00001002862286A20F0040002E0286A40F02D
:100EF00001002862E06841F2883B98B1FFF734FDB9
:100F000082460BE0286A40F004002862EEE700BF4A
:100F1000FFF72AFDA0EB0A0159455AD8286A800735
:100F2000F6D50CE0FFF720FD824605E0FFF71CFD3B
:100F3000A0EB0A0159454CD8286A8007F6D41FB1A6
:100F4000E86920F08050E861E06988B36968C1F31E
:100F50008101022944D00228C6F8608004D0FFF73E
:100F600003FD044638E034E0FFF7FEFC074604E0EA
:100F7000FFF7FAFCC01B02282BD828688001F7D4A1
:100F8000206AB0F5803F05D16868A16820F4003080
:100F900008436860D4E908010843696821F47411C2
:100FA00008436860C6F86090FFF7DEFC044606E080
:100FB00025E000BFFFF7D8FC001B022809D82868ED
:100FC0008001F7D51BE000BFFFF7CEFC001B022815
:100FD00002D90320BDE8F88F28688001F4D40EE020
:100FE0000128F7D06868226A00F48031914204D168
:100FF000616A00F47010884201D00120EAE7002005
:10100000E8E7000000100240000042428004424233
:10101000140000200070004070B5040009D0606A20
:10102000002540B125616561A56294F8510040B189
:101030000CE0012070BD6068B0F5827FF4D0E561FE
:10104000F2E784F85050204600F040F8022084F87F
:1010500051002068016821F040010160A0882189C9
:1010600000F4827001F404410843A18901F4006195
:101070000843217C01F002010843217D01F00101B8
:101080000843218B01F400710843217F01F03801EE
:10109000084394F8201001F080010843218D01F4E9
:1010A0000051084321680860A069042101EA10404A
:1010B000216848602068C16921F40061C1616565EB
:1010C000012084F85100002070BD0000F0B585B00B
:1010D0000025064600950195029503950068224972
:1010E00088423FD12148816941F480518161816901
:1010F00001F480510491816941F0080181618069A6
:101100001B4C00F008000490282000900220019061
:101110000320039069462046FFF724FB1027CDE902
:101120000075694620460295FFF71CFB114841688F
:1011300041F0E06141F001014160104C0E48C4E90A
:1011400000078020C4E9025025614FF440506561DA
:10115000C4E906502046FFF7ADFA08B1FFF78FF952
:10116000B464666205B0F0BD00300140001002407A
:10117000000C01400000014030000240400300200C
:101180007047704710B590F83C20012A22D0012208
:1011900080F83C20CA688C6822F4407222434C6874
:1011A00022F4806222430C6822F4006222430C691C
:1011B00022F4805222434C6922F400522243C9692E
:1011C000002322F480420A4301684A6480F83C30DC
:1011D000002010BD022010BD70B590F83C20012AFF
:1011E00026D0012480F83C40022280F83D2003688C
:1011F0005A689D6822F070060A6832435A600D4BA7
:1012000002689A4208D0B2F1804F05D00A4B9A4248
:1012100002D00A4B9A4204D1496825F08003194351
:10122000916080F83D40002180F83C10084670BD78
:10123000022070BD002C0140000400400008004066
:1012400010B5040003D094F83D0010B107E0012070
:1012500010BD002084F83C00204600F01FF802205A
:1012600084F83D00211D206800F036FF012084F83D
:10127000460084F83E0084F83F0084F8400084F87B
:10128000410084F8420084F8430084F8440084F864
:10129000450084F83D00002010BD000008B500683E
:1012A0000649884208D10648816941F4006181619C
:1012B000806900F40060009008BD0000002C01402F
:1012C0000010024090F83D10012901D00120704724
:1012D000022180F83D1000680B49884208D0B0F127
:1012E000804F05D00949884202D00949884204D17B
:1012F000816801F00701062903D0016841F001016E
:101300000160002070470000002C014000040040F4
:101310000008004090F83D10012901D001207047DD
:10132000022180F83D100168CA6842F00102CA60DB
:1013300000680B49884208D0B0F1804F05D00949B8
:10134000884202D00849884204D1816801F007012F
:10135000062903D0016841F00101016000207047B7
:10136000002C0140000400400008004070B5044615
:1013700090F83C00012817D0012584F83C50022049
:1013800084F83D002068826822F0770222F47F42D0
:1013900082600868502830D00DDC20284DD005DC54
:1013A00098B310283BD148E0022070BD302844D0CB
:1013B000402834D139E0602828D0702806D0B0F514
:1013C000805F2CD0B0F5005F29D10AE0CB68D1E96D
:1013D0000121206800F0C3FE2068816841F0770198
:1013E00009E0CB68D1E90121206800F0B8FE20684F
:1013F000816841F48041816011E0CA6849682068D1
:1014000000F062FF5021206807E016E0CA684968D2
:10141000206800F06AFF6021206800F0AAFE84F8CE
:101420003D50002084F83C0070BDCA6849682068BF
:1014300000F04AFF40212068EFE72268014610468D
:10144000EBE7704770B50446006801694FF000058E
:10145000C943890715D4C168C943890711D4E91E56
:10146000016101202077206880698007204602D032
:10147000FFF7E7FF04E000F0C1F8204600F050F964
:10148000257720680169C943490717D4C168C94352
:10149000490713D46FF0040101610220207720680E
:1014A000806910F4407F204602D0FFF7CAFF04E0B5
:1014B00000F0A4F8204600F033F925772068016990
:1014C000C943090716D4C168C943090712D46FF08C
:1014D00008010161042020772068C0698007204648
:1014E00002D0FFF7AEFF04E000F088F8204600F0DD
:1014F00017F9257720680169C943C90617D4C1685F
:10150000C943C90613D46FF0100101610820207788
:101510002068C06910F4407F204602D0FFF791FF99
:1015200004E000F06BF8204600F0FAF82577206818
:101530000169C943C90708D1C168C943C90704D1B2
:10154000891E0161204600F03BF920680169C9430A
:10155000090609D4C168C943090605D46FF08001A2
:1015600001612046FFF70CFE20680169C943490666
:1015700009D4C168C943490605D46FF0400101612F
:10158000204600F024F920680169C94389060BD47C
:10159000C168C943890607D46FF020010161204664
:1015A000BDE87040FFF7EDBD70BD000000B585B02F
:1015B0000021009101910291039100680C49884239
:1015C00013D10C48816941F0040181618069694649
:1015D00000F0040004904FF440700090022001904D
:1015E000032003900448FFF7BDF805B000BD0000DC
:1015F000002C01400010024000080140704770B507
:10160000044690F83C000D4601280AD0012084F8D9
:101610003C0042B1042A18D0082A2AD00C2A4DD105
:1016200039E0022070BD206800F0ACFD20688169BF
:1016300041F0080181612068816921F00401816124
:10164000206881692A69114311E0206800F0C2FD19
:101650002068816941F4006181612068816921F419
:1016600080618161206881692A6941EA0221816182
:1016700024E0206800F0DAFD2068C16941F008012B
:10168000C1612068C16921F00401C1612068C1699C
:101690002A69114311E0206800F0F4FD2068C16957
:1016A00041F40061C1612068C16921F48061C161B8
:1016B0002068C1692A6941EA0221C161002084F8D9
:1016C0003C0070BD10B5040003D094F83D0010B18B
:1016D00007E0012010BD002084F83C00204600F007
:1016E0001EF8022084F83D00211D206800F0F4FC63
:1016F000012084F8460084F83E0084F83F0084F816
:10170000400084F8410084F8420084F8430084F8E3
:10171000440084F8450084F83D00002010BD704767
:101720007047000010B50446022249B104290ED0CA
:10173000082913D094F84100012816D0012010BDCB
:1017400094F83E000128F9D184F83E200FE094F887
:101750003F000128F2D184F83F2008E094F84000CF
:101760000128EBD184F8402001E084F841200122D7
:10177000206800F0E7FC0F492068884203D1426CE2
:1017800042F4004242642068884208D0B0F1804FA1
:1017900005D00949884202D00849884204D18168AD
:1017A00001F00701062903D0016841F00101016041
:1017B000002010BD002C0140000400400008004043
:1017C0000068B0F1804F01D1FFF7D4B8704770477F
:1017D00070477047F8B5026804461068D1685369CD
:1017E00010F00F0F4FF0000553D003F0010601F485
:1017F000907737435FD0C20705D0CA0503D5226C66
:1018000042F001022264420705D5DA0703D0226CB8
:1018100042F002022264820705D5DA0703D0226C67
:1018200042F004022264020707D501F0200232438D
:1018300003D0226C42F008022264226C002A34D0C9
:10184000800604D5880602D5204600F080FD206879
:101850004069216CC0F38010090700D430B32046E2
:1018600000F05DFD2068416949061BD5416921F002
:1018700040014161A06BA8B158494163A06BFEF7DC
:1018800023FE002811D0A06B416B01B0BDE8F040F1
:10189000084783060FD58B060DD52046BDE8F840D6
:1018A00000F055BD2046FFF794FFF8BD2046FFF736
:1018B00090FF2564F8BD266B2023012E52D1C60669
:1018C00050D5CE064ED5106850680090506940063D
:1018D0002AD5A16B086840680004000CEAD0A68DE8
:1018E0008642E7D9E0858869202818D0D06820F49E
:1018F0008070D0602068416921F001014161206859
:10190000416921F04001416184F83E30256320683F
:10191000C16821F01001C160A06BFEF7B2FDA08D7F
:10192000E18D401A81B219E0A08DE18D401A81B29B
:10193000E08D0028BED00029BCD0D06820F4907083
:10194000D0602068426922F00102426184F83E3092
:1019500025632068C26822F01002C2602046FFF7AB
:1019600037FFF8BD05062BD50D0629D594F83D00A7
:101970002128F6D1A068B0F5805F01D12069B0B10F
:10198000206A411C2162216800784860E08C401E7A
:101990000004000CE084E4D12068C16821F08001DB
:1019A000C1602068C16841F04001C160F8BD206A93
:1019B0000088C0F308005060206A801C2062E5E7C0
:1019C0004006F3D54806F1D5D168204621F0400104
:1019D000D16084F83D3000F00BF9F8BD0F2300080A
:1019E00070B5040004D094F83D00002510B106E065
:1019F000012070BD84F83C50204600F023F82420DC
:101A000084F83D002068C16821F40051C16020467F
:101A100000F0F8FC2068016921F490410161206820
:101A2000416921F02A0141612068C16841F40051F7
:101A3000C1602564202084F83D0084F83E00002029
:101A400070BD000030B585B000240094019402946C
:101A50000394324D0368324802210322AB422ED157
:101A6000836943F480438361836903F4804304936F
:101A7000836943F00803836180692A4D00F0080000
:101A800004904020CDE90001039269462846FEF704
:101A900069FE8020CDE90004694628460294FEF7DD
:101AA00061FE2148416841F0E06141F0040141607C
:101AB000002205212520FEF7E1FF252029E01B4D0E
:101AC000AB4228D1C36943F40033C361C36903F453
:101AD00000330493836943F0040383618069144DE8
:101AE00000F0040004900420CDE90001039269464F
:101AF0002846FEF737FE0820CDE90004694628464F
:101B00000294FEF72FFE002206212620FEF7B6FFE4
:101B10002620FEF7A5FF05B030BD000000380140CB
:101B200000100240000C0140000001400044004051
:101B30000008014090F83E30202B0ED159B152B12F
:101B400090F83C30012B08D0012380F83C30002372
:101B5000036300F0B3BC012070470220704700000F
:101B600070B505461D48006800681D4CC0438006DE
:101B700011D4012221461948FFF7DCFF2278617950
:101B8000184800F0FDF960790321401CB0FBF1F228
:101B900001FB120060711448854213D101221049E3
:101BA000FFF7C8FF2078114930280CD031280CD01D
:101BB00032280ED033280ED0E178002902D101213D
:101BC000E170207170BDE08800E0208909684863F9
:101BD00070BDA089FAE76089F8E70000CC03002017
:101BE0001800002030000020100400208403002092
:101BF0007047FEE7094808B5416941F001014161BC
:101C00004069002200F00100009005210D20FEF740
:101C100035FFBDE808400D20FEF722BF001002404E
:101C200010B58EB01C220B496846FEF7C9FA002198
:101C3000684600F0C8FC084C06491C2220601C3194
:101C400007A8FEF7BDFA002107A800F0BCFC606001
:101C50000EB010BD9C30000800000020F0B585B02B
:101C600000252D480095019502950395816941F065
:101C700010018161816901F010010491816941F0D5
:101C800020018161816901F020010491816941F0A5
:101C900004018161816901F004010491816941F0CD
:101CA0000801816180691D4E00F008004FF4005466
:101CB0000490002221463046FEF751FE184F0022C4
:101CC000F0213846FEF74BFE00940124CDE9014592
:101CD000694630460394FEF745FDF020CDE9000447
:101CE000022002900320039069463846FEF73AFD31
:101CF000600200900B48CDE9010469460A48FEF7EE
:101D000031FD002207211720FEF7B8FE1720FEF74D
:101D1000A7FE05B0F0BD0000001002400010014019
:101D20000008014000002110000C01400F4810B5D0
:101D30000D4901604FF482714160002181600122F0
:101D4000C160C0E904125202C0E906210162416289
:101D500081620A21C162FFF75FF9002803D0BDE864
:101D60001040FEF78CBB10BD00300140E80200209F
:101D700010B596B000240F941094119412941394FB
:101D80001C2168461494FEF734FA202107A8FEF7B8
:101D900030FA2C482A4901600F21C0E9011444F6A9
:101DA0001F61C0E9031444618461FFF749FA08B177
:101DB000FEF765FB4FF480500F900FA92148FFF705
:101DC000D5FA08B1FEF75BFB1E48FFF77BFC08B1B4
:101DD000FEF755FB139413A91A481494FFF7FCF966
:101DE00008B1FEF74CFB6020CDE900040294039497
:101DF000049405940022694612480694FFF7FFFBFD
:101E000008B1FEF73CFB042269460E48FFF7F7FBDA
:101E100008B1FEF734FB0794089409944FF400507E
:101E20000A94CDE90B4007A906480E94FFF7AAF9DA
:101E300008B1FEF724FB0348FFF7B8FB16B010BD4E
:101E4000002C0140840300200C4810B50A490160B1
:101E50004FF4E1314160002181600C22C160C0E992
:101E600004128161C161FFF7BBFD002803D0BDE80A
:101E70001040FEF704BB10BD00380140CC03002029
:101E80000C4810B50A4901604FF4E131416000216E
:101E900081600C22C160C0E904128161C161FFF759
:101EA0009FFD002803D0BDE81040FEF7E8BA10BD42
:101EB0000044004010040020FEE7FEE770B52F4C00
:101EC0000D4608281CD2DFE800F0040B20272E3A2C
:101ED0004648002210212046FEF741FD012201E084
:101EE000002213E020212046FEF739FD0122402187
:101EF0002046FEF734FD012280212046FEF72FFD0B
:101F00002846BDE87040FEF703BC012210212046A0
:101F1000FEF725FD0022E5E7012210212046FEF70D
:101F20001EFD002205E0012210212046FEF717FDCC
:101F3000012220212046FEF712FD0022D7E70122D0
:101F400010212046FEF70BFD012220212046FEF73E
:101F500006FD00220CE0012200E0002210212046B4
:101F6000FEF7FDFC012220212046FEF7F8FC0122AD
:101F700040212046FEF7F3FC0022BDE700080140A7
:101F800029B1012905D0022900D182707047027061
:101F90007047427070470000064D4FF400544FF4F4
:101FA000FA7621462846FEF7D2FC304600F026FE9F
:101FB000F7E700000010014010B50B4C0022102183
:101FC0002046FEF7CCFC002220212046FEF7C7FC6D
:101FD000002240212046FEF7C2FC20460022BDE838
:101FE00010408021FEF7BBBC0008014070B50D46D3
:101FF000064620F000401249FEF706F91149FEF7A7
:1020000035F9FEF776F984B2B6F5000F07DA14E079
:1020100004F007002946FFF751FF641EA4B2002C0C
:10202000F6D170BD04F00700C01F00D54042C0B219
:102030002946FFF743FF641EA4B2002CF2D170BD05
:102040000000AA450000344410B5502080F31188E8
:10205000BFF34F8FBFF36F8F00F05AFF18B10449E1
:102060004FF080500860002080F3118810BD000000
:1020700004ED00E030B58FB028216846FEF7B9F8CE
:1020800014210AA8FEF7B5F80121080400240491E0
:10209000CDE90010CDE908040294022507956846B1
:1020A000FEF72AFE08B172B6FEE70F200A90CDE9CE
:1020B0000B540D9400210AA80E94FEF711FD002880
:1020C00001D072B6FEE70FB030BD70470148FFF790
:1020D000B9B9000054040020F0B50268164B174C43
:1020E000174D4FF08047984205D0B84203D0A04228
:1020F00001D0A84203D122F070064A6832439842C8
:1021000005D0B84203D0A04201D0A84203D122F4A6
:102110004074CA6822434C6922F080022243026064
:102120008A68C2620A688262984201D109690163C1
:1021300001214161F0BD0000002C0140000400407D
:102140000008004010B501F01F030121046A994006
:102150008C430462016A9A401143016210BD10B5BC
:10216000846842EA032224F47F440A4322438260C3
:1021700010BD826822F070020A4342F007018160BC
:102180007047000030B5026A22F001020262026A62
:102190004368846924F073050C682C4322F002051F
:1021A0008A682A430A4DA8420BD122F00805CA6862
:1021B00023F440732A434D6922F004021D438B69C6
:1021C0002B434360846149684163026230BD000073
:1021D000002C014030B5026A22F010020262026A4D
:1021E000436884690D6824F4E64444EA05248D6854
:1021F00022F0200242EA05120B4DA8420ED1CD6812
:1022000022F0800242EA05124D6923F4406343EA5A
:1022100085038D6922F0400243EA850343608461AF
:1022200049688163026230BD002C014030B5026A0A
:1022300022F480720262036A4268C46923F4007364
:1022400024F073050C682C438D6843EA05230C4D7C
:10225000A8420ED1CD6823F4006343EA05234D69FB
:1022600022F4405242EA05128D6923F4806342EA67
:1022700005124260C4614968C163036230BD000059
:10228000002C014030B5026A22F480520262046AD6
:102290004268C3690D6823F4E64343EA05238D6869
:1022A00024F4005444EA0534064DA84204D14D6993
:1022B00022F4804242EA85124260C36149680164A7
:1022C000046230BD002C014010B5036A046A24F09A
:1022D00001040462846924F0F00444EA021423F047
:1022E0000A020A438461026210BD10B5036A23F03A
:1022F000100303628369046A23F4704343EA0232E1
:1023000024F0A00343EA01118261016210BD10B5FF
:10231000406A0021C185C184FFF75BFA10BD0168E6
:10232000CA6822F49072CA6001684A6922F0010208
:102330004A61016B012904D10168CA6822F01002C8
:10234000CA60202180F83E1000210163704708B563
:1023500090F83E10222901D0022008BD82684FF477
:1023600080539A4201D1016921B1816A9A421BD0FE
:102370004AB10AE00268816A5268C2F308020A8020
:10238000816A891C08E0026972B10268526802F031
:102390007F020A70816A491C8162C18D491E09044D
:1023A000090CC18503D019E002685268F1E70168A1
:1023B000CA6822F02002CA600168CA6822F48072EA
:1023C000CA6001684A6922F001024A61202180F84E
:1023D0003E10016B012903D0FFF7C2FB002008BDAE
:1023E000002101630168CA6822F01002CA60016816
:1023F0000A68D20602D50A6849680091818DFFF704
:10240000E7F9EBE770B5044600680169E26821F47A
:102410004051114301612169A06808436169084383
:102420002168CA6841F20C639A430243CA6020687B
:102430004169A26921F44071114341611E4920683C
:10244000884202D1FEF712FC01E0FEF7FFFB00EB31
:10245000C00101EB0012606864218000B2FBF0F360
:10246000B3FBF1F36FF018067343B2FBF0F5B2FB68
:10247000F0F605EB8305322303EB0515B5FBF1F50B
:10248000B6FBF1F605F0F00505EB0615B2FBF0F62C
:10249000B2FBF0F0B0FBF1F06FF01802504306EB26
:1024A000800003EB0010B0FBF1F0216800F00F009A
:1024B0002844886070BD0000003801408162828538
:1024C000C28500210164222280F83E2080F83C1061
:1024D0000168CA6842F48072CA6001684A6942F0C1
:1024E00001024A610068C16841F02001C16000201A
:1024F000704700000148FFF76DB90000CC030020D1
:102500000148FFF767B9000010040020FEE7090743
:10251000090E002804DB00F1E02080F80014704769
:1025200000F00F0000F1E02080F8141D704702E079
:1025300008C8121F08C1002AFAD17047704700204E
:1025400001E001C1121F002AFBD17047FEF71AFA01
:10255000FFF790FDFFF782FBFFF70AFCFFF74AFB4E
:10256000FFF78EFCFFF7E2FBFFF76EFC0D480068FB
:10257000C16841F02001C1600B480068C16841F0AA
:102580002001C160012209490648FFF7D3FA012260
:1025900006490548FFF7CEFAFFF742FB00F00EF8B8
:1025A000FEE70000CC0300201004002018000020EB
:1025B00001460020842900D0C81C704710B500F0E7
:1025C00089FB002010BD7FB50D4604464169B0F976
:1025D000080081B1A16971B1FFF7EAFFD4E90512E2
:1025E0008DE80700D4E900102B46226900F05FFC5B
:1025F000039004B070BDFFF7DBFF03A9CDE9000134
:10260000208A2B4682B2D4E9001000F023FC012876
:1026100001D00020EDE70398EBE700002DE9F04141
:102620001A4C0F46054666692168002081F8520061
:102630002068001D00F01EFA38B9206890F82C10B0
:1026400001208840A1698143A161681C07D137B18D
:102650002168BDE8F0410E48091D00F04FBA20681E
:102660003544B5424560216805D2A068BDE8F04117
:10267000091D00F02BBA6068091D00F027FA206BD5
:10268000854200D22563BDE8F081000034000020BF
:10269000780500202DE9F041054600F03BFA2E4C6C
:1026A0002069401C206120682C4F10B1E06940B3C4
:1026B0002DE025602069012829D1002606EB86003F
:1026C00007EB800000F0F4F9761C072EF6D32348C0
:1026D0008C3000F0EDF92148A03000F0E9F91F48F6
:1026E000B43000F0E5F91D48C83000F0E1F91B48AE
:1026F000DC3000F0DDF919488C3060601430A060E7
:1027000005E02068E96AC06A884200D82560E06A6E
:10271000401CE062E96A0120A26988401043A06180
:1027200001EB810007EB8000291D00F0E7F900F0C4
:1027300011FAE06900280CD02068E96AC06A884272
:1027400007D207494FF080500860BFF34F8FBFF3A7
:102750006F8FBDE8F0810000340000209C04002051
:1027600004ED00E010B5044690F8510058B101287E
:102770000CD002280FD0502080F31188BFF34F8F68
:10278000BFF36F8FFEE7206B00F0F8F92046BDE83D
:10279000104000F0F3B910BD10484FF440614207FB
:1027A00006D0C01D0D4920F00700411AC1F5406157
:1027B0000B4A00230144C2E900030839103A21F012
:1027C000070111604B600B600B1AC0E900139360A6
:1027D0004FF000405360D060704700008C0500202F
:1027E00080000020144E154CA6F1C8074FF0805809
:1027F000DFF84C9012E000BF00F08CF9F068C5687B
:10280000281D00F037F92069401E2061E068401E55
:10281000E06000F09FF92846FFF7A4FFE068002879
:10282000EAD138680128F9D9C9F80080BFF34F8F81
:10283000BFF36F8FF2E70000640500203400002032
:1028400004ED00E02DE9F0470E46DDE90984174666
:10285000824691009946089DA522206BFDF7C2FC97
:102860006FF00301206B01EB8701084420F007079C
:10287000780707D0502080F31188BFF34F8FBFF344
:102880006F8FFEE72218315C82F83410315C11B191
:10289000401C1028F6D3002684F84360072D00D38F
:1028A0000625E562C4E91156201D00F00CF904F17B
:1028B000180000F008F92461C5F107006462A06106
:1028C000E66484F8506084F852604A4651463846BF
:1028D00000F0BEF82060B8F1000F01D0C8F8004049
:1028E000BDE8F08730B5114900E011460A68824220
:1028F000FBD34B685C18844203D14068184448609D
:10290000084643681C18944209D1084C103C2468BE
:10291000A24209D052681A4442600A6812680260F2
:10292000814200D0086030BD0460F9E780000020DB
:1029300006484168096829B14168C968C968496899
:10294000016370474FF0FF31FAE7000034000020C8
:1029500008484068401C4FF0500080F3118804D0B4
:10296000BFF34F8FBFF36F8FFEE7BFF34F8FBFF300
:102970006F8FFEE7880000202DE9F0410546002713
:1029800000F0DEF9314E306808B9FFF705FFF06856
:1029900005424BD1C5B3083568070ED005F00700D6
:1029A000C0F108000544680707D0502080F3118863
:1029B000BFF34F8FBFF36F8FFEE72DB37068854273
:1029C00034D82248103001460C6801E020460C46FD
:1029D0006168A94202D221680029F7D131688C428E
:1029E00024D007682168016060680837411B1029FE
:1029F0000FD96019420708D0502080F31188BFF327
:102A00004F8FBFF36F8FFEE710E041606560FFF707
:102A100069FF61687068401A7060B268904200D2C5
:102A2000B060F06801430020C4E9000100F0D4FA6E
:102A3000780707D0502080F31188BFF34F8FBFF382
:102A40006F8FFEE73846BDE8F0810000700000207F
:102A500010B5031F4FF080741C601B1F21F0010193
:102A60001960191F024B0B60143940380A6010BD01
:102A700051290008D0E9013201699A60D0E90123A7
:102A80005A604A68824201D182684A60002202612B
:102A90000868401E0860086870470000034B036028
:102AA00003F15400086080201060704794000020FB
:102AB00000F108014FF0FF32C0E90112C16001616D
:102AC00000210160704700210161704730B50B683B
:102AD0005A1C02D000F1080202E0026904E022461A
:102AE000546825689D42FAD953684B6099608A60A2
:102AF000516008610168491C016030BD42684A604C
:102B000093688B6093685960916008610168491C03
:102B100001607047502080F31188BFF34F8FBFF3DF
:102B20006F8F0A494868401C486001280CD108484A
:102B3000006810F0FF0F07D0502080F31188BFF31A
:102B40004F8FBFF36F8FFEE77047000088000020B3
:102B500004ED00E00849486828B1401E486001D1F2
:102B600080F311887047502080F31188BFF34F8F96
:102B7000BFF36F8FFEE700008800002070B50028CB
:102B800027D0144DA0F108046168E868014207D11C
:102B9000502080F31188BFF34F8FBFF36F8FFEE794
:102BA00022683AB1502080F31188BFF34F8FBFF3F2
:102BB0006F8FFEE78143616000F0C2F8606869686A
:102BC000084468602046FFF78DFEBDE8704000F0C5
:102BD00003BA70BD700000204FF0E02000210161B9
:102BE000816105494FF47A720968B1FBF2F1491E1F
:102BF00041610721016170471400002010B50200F7
:102C000014D00F48806B38B1502080F31188BFF387
:102C10004F8FBFF36F8FFEE700F092F80021104650
:102C2000FFF7FCFC00F0D8F9002807D105494FF068
:102C300080500860BFF34F8FBFF36F8F10BD00004F
:102C40003400002004ED00E070B50D4604000BD008
:102C500095B11E4A906BB8B1502080F31188BFF334
:102C60004F8FBFF36F8FFEE7502080F31188BFF3C3
:102C70004F8FBFF36F8FFEE7502080F31188BFF3B3
:102C80004F8FBFF36F8FFEE700F05AF85269236849
:102C90005919934204D98B420AD9914202D807E0CC
:102CA0008B42FAD9881A21600021FFF7B7FC00E0B7
:102CB000216000F091F9002807D105494FF08050BC
:102CC0000860BFF34F8FBFF36F8F70BD34000020DB
:102CD00004ED00E010B586B00024039405AA04A911
:102CE00003A80494FFF7DAFEDDE903010094CDE9BF
:102CF000011000230EA11048059A00F0D8F80F49E2
:102D00000028486311D0502080F31188BFF34F8F03
:102D1000BFF36F8F4FF0FF3008630120C8614C6133
:102D200006B0BDE8104000F041B806B010BD00008C
:102D300049444C4500000000E5270008340000200D
:102D40000248816B491C81637047000034000020F9
:102D50001448816B11B10121416270470021416229
:102D60008169B1FA81F1C1F11F0101EB81020E49C4
:102D700051F822306BB101EB820101F108034A687E
:102D800052684A609A4201D152684A60D168016033
:102D90007047502080F31188BFF34F8FBFF36F8FC0
:102DA000FEE70000340000209C0400201CB52649EA
:102DB00008780190FF20087008788DF800009DF8D1
:102DC00000009DF8002000F0F000904207D0502055
:102DD00080F31188BFF34F8FBFF36F8FFEE79DF82D
:102DE00000001A4B00F0500018700720986005E0B2
:102DF0009DF8002052008DF80020401E9DF8002014
:102E00001206F5D49860032807D0502080F311886B
:102E1000BFF34F8FBFF36F8FFEE74FF440709860A2
:102E2000019808700A48016841F470010160016866
:102E300041F070410160FFF7CFFE00205860FDF7C0
:102E400073F900201CBD000000E400E088000020B1
:102E500020ED00E02DE9FF5F8346DDE90E8799460E
:102E600016468A469000FFF787FD05001CD05420C7
:102E7000FFF782FD040014D00020256384F8510080
:102E8000CDE90240CDE900874B46324651465846CF
:102E9000FFF7D8FC2046FFF7FDFB012004B0BDE89A
:102EA000F09F2846FFF76AFE4FF0FF30F6E7F0B5D7
:102EB00085B0DDE90B640A9DA6B1DCB1542700970B
:102EC0002663022684F85160002604AFCDE902464D
:102ED000CDE90057FFF7B6FC2046FFF7DBFB04986F
:102EE00005B0F0BD502080F31188BFF34F8FBFF3C2
:102EF0006F8FFEE7502080F31188BFF34F8FBFF331
:102F00006F8FFEE7014840697047000034000020E1
:102F10002DE9F0412E4C0027A06B40B1206A401CE7
:102F20002062606A00B101273846BDE8F081666919
:102F3000761C666113D16068006838B1502080F358
:102F40001188BFF34F8FBFF36F8FFEE76068A168F2
:102F50006160A060A06A401CA062FFF7E9FC206BE2
:102F6000DFF87080864209D36068006880B16068CD
:102F7000C068C568686886420DD220632068C06A50
:102F800000EB800158F821000128CAD90127C8E7C1
:102F90004FF0FF30F1E7281DFFF76CFDA86A18B16C
:102FA00005F11800FFF766FDE86A0121A26981407A
:102FB0001143A16100EB800108EB8100291DFFF79F
:102FC0009DFDE86A2168C96A8842CDD30127CBE715
:102FD000340000209C0400202DE9F0472C4D0024F3
:102FE0002746A86B38B1FFF795FDA86B401EA86374
:102FF000A86B40B146E0502080F31188BFF34F8F9B
:10300000BFF36F8FFEE72969224E0120D1B3A6F1ED
:10301000B40980463068E8B1F068C46804F118006B
:10302000FFF728FD201DFFF725FDE06AAA6908FAD1
:1030300000F11143A96100EB800109EB8100211D22
:10304000FFF75CFDE06A2968C96A8842E2D3C5F8E7
:103050002480DFE70CB1FFF76BFC2C6A44B14646D5
:10306000FFF756FF00B16E62641EF9D1002028629E
:10307000686A38B10849012738070860BFF34F8FE5
:10308000BFF36F8FFFF766FD3846BDE8F08700009D
:10309000340000205005002004ED00E0F830000866
:1030A000991F0008FFFF00000000000080000000E2
:1030B0000000000000000000EC300008B103000830
:1030C000020000000000000080000000000000007E
:1030D00000000000000000000000000001020304E6
:1030E000060708090000000001020304636F6E7404
:1030F000726F6C5461736B0064656661756C7454B7
:1031000061736B002431000800000020940000006F
:103110002E250008B831000894000020FC1400009F
:103120003E25000800000000000000000100000033
:1031300010000000000000000024F4000000000067
:103140000000CC018403E808E803F4010000A0407B
:10315000000000000A000A0000000000000000005B
:10316000000000000000000000000000000000005F
:10317000000000000000000000000000000000004F
:10318000000000000000000000000000000000003F
:10319000000000000000000000000000000000002F
:1031A000000000000000000000000000000000001F
:0831B000AAAAAAAA000000006F
:04000005080000ED02
:00000001FF
