:020000040800F2
:10000000B81600209D010008651F0008371C000875
:10001000611F0008C7040008BF2500080000000099
:1000200000000000000000000000000005010008C2
:100030006506000800000000490100085121000881
:10004000B7010008B7010008B7010008B7010008B0
:10005000B7010008B7010008B7010008B7010008A0
:10006000B7010008B7010008B7010008B701000890
:10007000B7010008B7010008B7010008B701000880
:10008000B7010008B7010008B7010008B701000870
:10009000B7010008B7010008B7010008B701000860
:1000A000B7010008E5210008B7010008B701000802
:1000B000B7010008B7010008B7010008B701000840
:1000C000B7010008B7010008B7010008B701000830
:1000D000B7010008B7010008B7010008B701000820
:1000E000B7010008B7010008B7010008DFF810D019
:1000F00000F0ACF9004800471D260008AFF300806F
:10010000B8160020224B19680868B0E8F00F80F399
:100110000988BFF36F8F4FF0000080F311884EF015
:100120000D0E70470000000006480068006880F36C
:10013000088862B661B6BFF34F8FBFF36F8F00DFE1
:1001400000BF00BF08ED00E0EFF30980BFF36F8F41
:100150000F4B1A6820E9F00F106008B54FF05000FF
:1001600080F31188BFF34F8FBFF36F8F02F0B0FFA2
:100170004FF0000080F31188BDE808401968086856
:10018000B0E8F00F80F30988BFF36F8F704700BFAE
:1001900018000020EFF305807047000006488047F4
:1001A00006480047FEE7FEE7FEE7FEE7FEE7FEE75C
:1001B000FEE7FEE7FEE7FEE7E3210008ED000008AA
:1001C00040EA01039B0703D009E008C9121F08C0D9
:1001D000042AFAD203E011F8013B00F8013B521E59
:1001E000F9D27047D2B201E000F8012B491EFBD2D0
:1001F00070470022F6E710B513460A460446194632
:10020000FFF7F0FF204610BDF0B480EA0102D40FE2
:100210004200B2EB410F02D20246084611464A00A4
:1002200042D0C30DDDB2C1F3C752AD1A202D35DA6D
:10023000C1F3160141F4000204B15242C5F1200697
:1002400002FA06F12A411044B3EBD05F23D0C4B1C7
:10025000012DA0EBC35009DCF0BC4FF0004202EAD4
:10026000C352DBB200F5000000F0C1B8400000F15D
:10027000807000EBC350A0F1807040EAD17049005B
:1002800009E0490841EAC071A0EBC35000F5000045
:10029000400800EBC350F0BC00F0A0B8614201225E
:1002A00002EB4101001BF6E7F0BC704781F0004112
:1002B000AAE780F00040A7E780EA010210B502F04B
:1002C0000043400022D04A001FD0010E01EB126112
:1002D000C0F35600C2F3560240F4000042F400029C
:1002E000A0FB022000047F39140400D0401C50EA17
:1002F000124001D44000491EC2B20C0604EBD010DB
:10030000401C4008802A02D003E0002010BD20F0ED
:100310000100002900DA0020184310BD30B480EA43
:10032000010202F0004530F0004221F0004013D0FD
:1003300090B1C30DD40DC2F31601C0F31600E41A38
:1003400041F4000140F400027D34914201D3641C69
:1003500000E04900002C02DA30BC002070474FF466
:1003600000000023914201D3891A034340084FEA59
:100370004101F7D151B1914202D14FF0004105E066
:1003800002D24FF0010101E06FF0010103EBC45014
:10039000284430BC00F022B8C10F80EAE070084465
:1003A000CA079623002100F022B8962300221146A6
:1003B00000F01DB820F00040C10DC0F3160040F45D
:1003C00000007F2901DA00207047962903DCC1F183
:1003D0009601C84070479639884070470029A8BFE9
:1003E0007047401C490008BF20F00100704710B45E
:1003F000B0FA80FC00FA0CF050EA010404BF10BC13
:10040000704749B1CCF1200421FA04F411FA0CF13F
:1004100018BF012121430843A3EB0C01CB1D4FEA78
:1004200000614FEA102042BF002010BC704700EB73
:10043000C35010440029A4BF10BC7047401C4900A1
:1004400008BF20F0010010BC70470000064C074DAB
:1004500006E0E06840F0010394E807009847103494
:10046000AC42F6D3FFF746FE30360008503600089F
:1004700070B58C1810F8015B15F0070301D110F866
:10048000013B2A1106D110F8012B03E010F8016B93
:1004900001F8016B5B1EF9D12B0705D40023521E16
:1004A0000DD401F8013BFAE710F8013BCB1A921C7E
:1004B00003E013F8015B01F8015B521EF9D5A1427C
:1004C000D8D3002070BD00BFFEE7000008B500BF14
:1004D00000BF01F05DFD02F04BFF0090B4E032215F
:1004E000684602F02BFD5948007807286FDA574814
:1004F000007800286BD0002467E0554931F81400DB
:10050000FFF753FF8046514A1278521E02EB420217
:10051000504B03EB021252F834104C4A127802EBA3
:10052000420203EB021252F83400FFF7BFFE81468D
:100530004146FFF7C1FE07464749FFF7BDFE0646A5
:100540004248007800EB4000424A02EB001000EB0A
:10055000C40041683046FFF7E1FE05463B4800789D
:10056000401E00EB40003B4A02EB001050F83410F4
:100570002846FFF749FE394941F8240051F8240084
:10058000214601F04BFD3149097801EB4101314A27
:1005900002EB011101EBC4014868FFF70BFF80B2C9
:1005A000322190FBF1F02A4931F81410884207DD1E
:1005B000274830F81400401C254921F8140002E0B7
:1005C000012027490855601CC4B2062C95DB1F4842
:1005D0000078B0B900240DE01C49097801EB410115
:1005E0001C4A02EB011151F83400214601F016FDBE
:1005F000601CC4B2062CEFDB14480078401C134981
:10060000087017480078F8B115484078E0B11448F0
:100610008078C8B11248C078B0B11148007998B15B
:100620000F48407980B118210C48FFF7E2FD0848D7
:1006300000210160416081600948016081800348B8
:100640000078401C0149087049E70000780000204C
:10065000A8120020800000200000484290120020D4
:1006600079000020704772B600BFFEE72DE9F84719
:100670000346002294466EE14FF0010808FA02F4A6
:10068000D1F8008008EA0400A0427DD1DFF8DCA2A6
:10069000D1F80480A8EB0A09D0453AD014DCB8F1AF
:1006A000030F50D009DCB8F1000F31D0B8F1010FC1
:1006B0001CD0B8F1020F49D120E0B8F1110F18D0C9
:1006C000B8F1120F42D11EE0B9F5881F25D006DC23
:1006D000B9F5803F20D0B9F5801F37D11AE0B9F5C0
:1006E000001F18D0B9F5041F30D117E0D1F80CC0A5
:1006F0002DE0D1F80C8008F1040C28E0D1F80C8032
:1007000008F1080C23E0D1F80C8008F10C0C1EE075
:1007100000BF00BF00BF00BF00BF00BFD1F808800E
:10072000B8F1000F02D14FF0040C0BE0D1F80880B3
:10073000B8F1010F03D14FF0080C1C6102E04FF03B
:10074000080C5C6103E04FF0000C00E000BF00BF4C
:10075000FF2801D8984601E003F104084646FF2827
:1007600002D84FEA820803E0A2F108084FEA88089D
:100770004746D6F800804FF00F0909FA07F928EA32
:1007800009080CFA07F900E088E048EA0908C6F809
:100790000080D1F8048008F08058B8F1805F7DD1E6
:1007A00000BFDFF8CC81D8F8188048F00108DFF8E6
:1007B000C091C9F81880C846D8F8188008F0010818
:1007C000CDF8008000BF00BF4FEAB9384FEA920968
:1007D00058F829504FEA82784FEA18794FF00F08FD
:1007E00008FA09F825EA0805DFF88881434502D1AF
:1007F0004FF0000816E0DFF88081434502D14FF04A
:1008000001080FE0DFF87481434502D14FF0020880
:1008100008E0DFF86C81434502D14FF0030801E0A6
:100820004FF004084FEA82794FEA197908FA09F87B
:1008300048EA0505DFF84C814FEA920948F829504B
:10084000D1F8048008F48038B8F5803F0AD1DFF889
:100850003881D8F8008048EA0008DFF82C91C9F800
:10086000008009E0DFF82081D8F8008028EA00083D
:10087000DFF81491C9F80080D1F8048008F400383A
:10088000B8F5003F10D1DFF8008108F10408D8F86E
:10089000008048EA0008DFF8F09000E05AE009F133
:1008A0000409C9F800800DE0DFF8DC8008F10408D5
:1008B000D8F8008028EA0008DFF8CC9009F1040994
:1008C000C9F80080D1F8048008F48018B8F5801FBA
:1008D0000ED1DFF8B48008F10808D8F8008048EAA3
:1008E0000008DFF8A49009F10809C9F800800DE0BC
:1008F000DFF8948008F10808D8F8008028EA00089A
:10090000DFF8849009F10809C9F80080D1F8048063
:1009100008F40018B8F5001F0ED1DFF86C8008F15C
:100920000C08D8F8008048EA0008DFF85C9009F16C
:100930000C09C9F800800DE0DFF84C8008F10C08C4
:10094000D8F8008028EA0008DFF83C9009F10C098B
:10095000C9F80080521CD1F8008028FA02F8B8F1DA
:10096000000F7FF489AEBDE8F88700000000111089
:100970000010024000080140000C0140001001403E
:1009800000140140080001400004014010B5C26895
:1009900021EA020302EA010443EA0443036110BDB1
:1009A0000AB1016101E00B0403617047014800686E
:1009B00070470000080000200348006803490978D8
:1009C000084401490860704708000020100000201A
:1009D00010B50848006840F0100006490860032080
:1009E00000F0CCF80F2000F007F800F049F80020E4
:1009F00010BD00000020024070B588B004460025FC
:100A0000002600222146192000F07AF8192000F073
:100A100067F800BF1648806940F400601449886197
:100A20000846806900F40060019000BF00BF02A981
:100A300003A800F07DF900F0B3F905460D48B5FBB9
:100A4000F0F0461E0C480D49086040F2E7310B48B3
:100A5000C160466000210161816000F071FC20B935
:100A6000064800F015FD08B070BD0120FBE700004E
:100A70000010024040420F00002C014058050020A9
:100A800008B500BF1448806940F001001249886130
:100A90000846806900F00100009000BF00BF00BF61
:100AA0000846C06940F08050C8610846C06900F03F
:100AB0008050009000BF00BF00220F21901E00F068
:100AC0001FF800BF0549486820F0E06040F0007062
:100AD000486000BF08BD0000001002400000014057
:100AE00001460846002809DB00F01F0301229A4056
:100AF00043099B0003F1E023C3F8002100BF7047C6
:100B00002DE9F05F80460D461646002701F05AFD9C
:100B1000074639462A46334601F00700C0F1070A66
:100B2000BAF1040F02D94FF0040A01E0C0F1070A3C
:100B3000D14600F1040ABAF1070F02D24FF0000AC1
:100B400001E0A0F1030AD4464FF0010A0AFA09FABB
:100B5000AAF1010A0AEA020A0AFA0CFA4FF0010B9A
:100B60000BFA0CFBABF1010B0BEA030B4AEA0B048B
:100B70002146404601F02EFDBDE8F09F00BF00F089
:100B80000702064B19684FF6FF031940044B0B434D
:100B900043EA0221014B196000BF70470CED00E0F1
:100BA0000000FA0570B504460D460CB9012070BD71
:100BB0005A48006800F00700A8420ED25748006863
:100BC00020F007002843554908600846006800F0F7
:100BD0000700A84201D00120E9E7207800F00200D8
:100BE00002281DD1207800F00400042805D14C48CB
:100BF000406840F4E0604A494860207800F008000E
:100C0000082805D14648406840F46050444948608F
:100C10004348406820F0F000A1680843404948601C
:100C2000207800F0010078B36068012806D13C48C4
:100C3000006800F4003090B90120B8E7606802282D
:100C400006D13748006800F0007040B90120AEE7D7
:100C50003348006800F0020008B90120A7E73048D7
:100C6000406820F00300616808432D494860FFF7A1
:100C70009DFE064609E0FFF799FE801B41F2883190
:100C8000884202D9032092E707E02548406800F037
:100C90000C006168B0EB810FEDD12048006800F0D6
:100CA0000700A8420ED91D48006820F0070028431D
:100CB0001A4908600846006800F00700A84201D001
:100CC000012074E7207800F00400042807D11448BC
:100CD000406820F4E060E1680843114948602078EA
:100CE00000F00800082808D10D48406820F4605042
:100CF000216940EAC1000A49486000F061F80849EA
:100D00004968C1F30311074A515CC84006490860AD
:100D100006480068FFF770FE002048E70020024008
:100D20000010024000360008140000200C000020D3
:100D30000F2202600D4A526802F0030242600B4A21
:100D4000526802F0F0028260084A526802F4E062DF
:100D5000C260064A526802F46052D2080261044A34
:100D6000126802F007020A6070470000001002409B
:100D70000020024001480068704700001400002075
:100D800000B5FFF7F7FF04494968C1F30221034AA0
:100D9000515CC84000BD0000001002401036000841
:100DA00000B5FFF7E7FF04494968C1F3C221034AD0
:100DB000515CC84000BD0000001002401036000821
:100DC000F0B585B00FF26C0C9CE8E01001A8A0E82B
:100DD000E0101CA52D6800950021002200230024AE
:100DE0000020194D696801F00C05F5B1042D02D001
:100DF000082D19D101E0154819E001ADC1F3834672
:100E0000AC5D01F4803555B10F4D6D68C5F34045BB
:100E10001DF805200D4D6543B5FBF2F302E00C4DC6
:100E200004FB05F3184602E000BF084800BF00BFFE
:100E300005B0F0BD02030405060708090A0B0C0DF6
:100E40000E0F1010010200000010024000127A0084
:100E500000093D00F8B504460CB90120F8BD207822
:100E600000F00100002878D0F848406800F00C003D
:100E700004280CD0F548406800F00C00082811D177
:100E8000F248406800F48030B0F5803F0AD1EF4866
:100E9000006800F4003000285FD0606800285CD152
:100EA0000120DBE700BF6068B0F5803F06D1E7486E
:100EB000006840F48030E549086028E0606858B96F
:100EC000E248006820F48030E04908600846006885
:100ED00020F4802008601AE06068B0F5A02F0BD1E4
:100EE000DA48006840F48020D84908600846006865
:100EF00040F4803008600AE0D448006820F4803074
:100F0000D24908600846006820F48020086000BFCD
:100F1000606888B1FFF74AFD054606E0FFF746FD29
:100F2000401B642801D9032098E7C848006800F4F2
:100F300000300028F2D010E0FFF738FD054606E04B
:100F4000FFF734FD401B642801D9032086E7BF4822
:100F5000006800F400300028F2D1207800F0020090
:100F6000022857D1B948406800F00C0050B1B7488A
:100F7000406800F00C00082818D1B448406800F41C
:100F8000803098B9B148006800F0020020B12069B3
:100F9000012801D0012061E7AC48006820F0F8008A
:100FA000616940EAC100A949086033E02069E8B1FD
:100FB0000120A7490860FFF7F9FC054606E0FFF7A6
:100FC000F5FC401B022801D9032047E79F48006831
:100FD00000F002000028F2D09C48006820F0F800E1
:100FE000616940EAC1009949086013E0002098490E
:100FF0000860FFF7DBFC054606E0FFF7D7FC401B67
:10100000022801D9032029E79048006800F0020077
:101010000028F2D1207800F0080008282DD1A0691E
:10102000B8B101208B490860FFF7C0FC054606E017
:10103000FFF7BCFC401B022801D903200EE78348C0
:10104000406A00F002000028F2D0012000F08CFF7E
:1010500013E000207F490860FFF7A8FC054606E082
:10106000FFF7A4FC401B022801D90320F6E67748CD
:10107000406A00F002000028F2D1207800F004005D
:10108000042873D100277148C06900F0805070B9FE
:1010900000BF6E48C06940F080506C49C861084686
:1010A000C06900F08050009000BF00BF01276A486F
:1010B000006800F48070B0B96748006840F4807040
:1010C00065490860FFF772FC054606E0FFF76EFC15
:1010D000401B642801D90320C0E65F48006800F483
:1010E00080700028F2D000BFE068012806D1574880
:1010F000006A40F001005549086227E0E06858B9ED
:101100005248006A20F00100504908620846006A0F
:1011100020F00400086219E0E06805280BD14B4874
:10112000006A40F00400494908620846006A40F03D
:10113000010008620AE04548006A20F001004349C6
:1011400008620846006A20F00400086200BFE068F8
:10115000A0B1FFF72BFC054609E0FFF727FC401B79
:1011600041F28831884202D9032077E622E03748ED
:10117000006A00F002000028EFD012E0FFF716FC32
:10118000054608E0FFF712FC401B41F28831884217
:1011900001D9032062E62D48006A00F00200002811
:1011A000F0D1012F05D12948C06920F0805027498E
:1011B000C86100BFE069C8B32448406800F00C0073
:1011C000082860D0E069022848D10020204908663C
:1011D000FFF7ECFB054606E0FFF7E8FB401B0228A3
:1011E00001D903203AE61948006800F00070002891
:1011F000F2D1206AB0F5803F07D11448406820F44E
:101200000030A168084311494860D4E90801084347
:101210000E49496821F4741108430C4948600120C3
:101220000B490866FFF7C2FB054607E03DE0FFF704
:10123000BDFB401B022801D903200FE603480068CC
:1012400000F000700028F2D02FE0000000100240F3
:1012500000004242800442420070004000201449D5
:101260000866FFF7A3FB054606E0FFF79FFB401B60
:10127000022801D90320F1E50E48006800F0007053
:101280000028F2D111E0E069012800D1E6E5094823
:10129000466806F48031206A814204D106F4701158
:1012A000606A814201D00120D8E50020D6E5000027
:1012B00000004242001002407047704730B50246BD
:1012C0000B4600BF92F83C00012801D1022030BD3E
:1012D000012082F83C0000BF022082F83D00106827
:1012E00044681068816824F070041868044310682A
:1012F0004460104D1068A8420BD01068B0F1804FC8
:1013000007D00D4D1068A84203D00C4D1068A842BC
:1013100005D121F0800158680143106881600120E7
:1013200082F83D0000BF002082F83C0000BF00BFF3
:10133000CDE70000002C0140000400400008004000
:1013400010B504460CB9012010BD94F83D0028B931
:10135000002084F83C00204600F026F8022084F8A3
:101360003D00211D206800F045FF012084F8460063
:1013700000BF84F83E0001213F2001554020015567
:101380004120015500BF00BF012084F842004320E6
:101390000155442001554520015500BF012084F826
:1013A0003D000020D0E7000008B50168B1F1804F92
:1013B0000DD100BF1849C96941F00101164AD16138
:1013C0001146C96901F00101009100BF23E0134AF1
:1013D000016891420DD100BF0F49C96941F0020176
:1013E0000D4AD1611146C96901F00201009100BFA7
:1013F00011E00B4A016891420DD100BF0649C9694D
:1014000041F00401044AD1611146C96901F00401A7
:10141000009100BF00BF08BD001002400004004062
:1014200000080040014691F83D00012801D001204C
:101430007047022081F83D00124B086898420BD09B
:101440000868B0F1804F07D00F4B0868984203D06E
:101450000E4B086898420CD10868806800F00702BB
:10146000062A0CD00868006840F001000B6818607C
:1014700005E00868006840F001000B681860002073
:10148000D6E70000002C01400004004000080040A6
:10149000014691F83D00012801D00120704702204B
:1014A00081F83D000868C06840F001000B68D86012
:1014B000124B086898420BD00868B0F1804F07D0F3
:1014C0000F4B0868984203D00E4B086898420CD125
:1014D0000868806800F00702062A0CD008680068D7
:1014E00040F001000B68186005E00868006840F0F3
:1014F00001000B6818600020D0E70000002C0140BC
:1015000000040040000800402DE9F04104460D466B
:1015100000BF94F83C00012802D10220BDE8F08110
:10152000012084F83C0000BF022084F83D002068C0
:10153000866826F0770626F47F462068866028684D
:10154000502833D00CDC202850D004DC00284BD0AD
:10155000102851D149E0302849D040284CD139E0F9
:1015600060282DD0702807D0B0F5805F03D0B0F58B
:10157000005F41D10DE040E0D5E902136A682068C0
:1015800000F083FE2068866846F077062068866053
:1015900033E0D5E902136A68206800F076FE20681F
:1015A000806840F480402168886026E0EA686968C5
:1015B000206800F03BFF5021206800F071FE1CE025
:1015C000EA686968206800F044FF6021206800F044
:1015D00067FE12E0EA686968206800F027FF402192
:1015E000206800F05DFE08E000BF00BF00BF296872
:1015F000206800F055FE00E000BF00BF012084F825
:101600003D0000BF002084F83C0000BF00BF85E71C
:10161000704710B5044620680069C0F34000D8B197
:101620002068C068C0F34000B0B16FF002002168CC
:101630000861012020772068806900F0030018B15C
:101640002046FFF7E5FF05E0204600F02DF9204693
:1016500000F0DDF90020207720680069C0F38000E9
:10166000D8B12068C068C0F38000B0B16FF004004A
:1016700021680861022020772068806900F44070AA
:1016800018B12046FFF7C4FF05E0204600F00CF932
:10169000204600F0BCF90020207720680069C0F3E4
:1016A000C000D8B12068C068C0F3C000B0B16FF00E
:1016B000080021680861042020772068C06900F0D4
:1016C000030018B12046FFF7A3FF05E0204600F015
:1016D000EBF8204600F09BF9002020772068006995
:1016E000C0F30010D8B12068C068C0F30010B0B1DA
:1016F0006FF0100021680861082020772068C06919
:1017000000F4407018B12046FFF782FF05E0204644
:1017100000F0CAF8204600F07AF90020207720680F
:10172000006900F0010058B12068C06800F00100B5
:1017300030B16FF0010021680861204600F0D2F955
:1017400020680069C0F3C01058B12068C068C0F3B9
:10175000C01030B16FF08000216808612046FFF7AB
:10176000ABFD20680069C0F3801058B12068C068E4
:10177000C0F3801030B16FF040002168086120464E
:1017800000F0BCF920680069C0F3401058B120682F
:10179000C068C0F3401030B16FF0200021680861CC
:1017A0002046FFF78AFD10BD10B586B00446002024
:1017B00002900390049005902068B0F1804F22D1F0
:1017C00000BF3448806940F008003249886108460B
:1017D000806900F00800019000BF00BF082002905F
:1017E000022003900320059002A92B48FEF73EFF3C
:1017F00000BF2A49486820F4407040F0E06040F49F
:101800008070486043E026492068884222D100BFAA
:101810002048806940F008001E49886108468069B8
:1018200000F00800019000BF00BF102002900220CD
:1018300003900320059002A91748FEF717FF00BF89
:101840001649486820F4406040F0E06040F40060D1
:1018500048601CE013492068884218D100BF0D4839
:10186000806940F008000B4988610846806900F0F3
:101870000800019000BF00BF4FF47070029002207A
:1018800003900320059002A90348FEF7EFFE06B07F
:1018900010BD000000100240000C0140000001409B
:1018A0000004004000080040704770B504460D4633
:1018B000164600BF94F83C00012801D1022070BDFB
:1018C000012084F83C0000BF36B1042E1BD0082E46
:1018D00031D00C2E5ED145E02946206800F0EAFCAC
:1018E0002068806940F0080021688861206880696C
:1018F00020F0040021688861206880692969084314
:101900002168886147E02946206800F003FD2068CF
:10191000806940F40060216888612068806920F453
:1019200080602168886120688069296940EA012017
:10193000216888612FE02946206800F01FFD20689B
:10194000C06940F008002168C8612068C06920F0C3
:1019500004002168C8612068C069296908432168BA
:10196000C86118E02946206800F03CFD2068C06985
:1019700040F400602168C8612068C06920F480607C
:101980002168C8612068C069296940EA012021688E
:10199000C86100E000BF00BF00BF002084F83C0029
:1019A00000BF00BF8BE710B504460CB9012010BD85
:1019B00094F83D0028B9002084F83C00204600F04F
:1019C00025F8022084F83D00211D206800F012FC5B
:1019D000012084F8460000BF84F83E0001213F202A
:1019E0000155402001554120015500BF00BF012095
:1019F00084F84200432001554420015545200155FB
:101A000000BF012084F83D000020D0E770477047F8
:101A100070B504460D4615B994F83E000BE0042D50
:101A200002D13F20005D06E0082D02D14020005D7C
:101A300001E04120005D012801D0012070BD1DB9E9
:101A4000022084F83E000EE0042D03D102213F2045
:101A5000015508E0082D03D102214020015502E084
:101A600002214120015501222946206800F0FCFB9B
:101A700019492068884201D1012000E0002028B1E6
:101A80002068406C40F40040216848641249206896
:101A900088420BD02068B0F1804F07D00F492068F2
:101AA000884203D00E49206888420CD120688068A3
:101AB00000F00706062E0CD02068006840F00100F8
:101AC0002168086005E02068006840F00100216896
:101AD00008600020B2E70000002C01400004004034
:101AE0000008004010B5044603492068884201D12F
:101AF000FEF762FF10BD0000002C0140704710B5DA
:101B000004460CB9012010BDA06900B100E000BF7F
:101B100094F83D0028B9002084F83C00204600F0ED
:101B200027F8242084F83D002068C06820F4005085
:101B30002168C860204600F0A1FC2068006920F4FC
:101B40009040216808612068406920F02A002168DF
:101B500048612068C06840F400502168C8600020D7
:101B60002064202084F83D0084F83E000020CAE76D
:101B700010B586B0044600200290039004900590B2
:101B80001949206888422DD100BF1848C06940F427
:101B900000301649C8610846C06900F40030019061
:101BA00000BF00BF00BF0846806940F004008861A4
:101BB0000846806900F00400019000BF00BF0420C7
:101BC0000290022003900320059002A90848FEF726
:101BD0004DFD0820029000200390049002A90448C3
:101BE000FEF744FD06B010BD004400400010024066
:101BF0000008014070B504460D46164694F83E00B4
:101C0000202816D105B10EB9012070BD00BF94F88F
:101C10003C00012801D10220F7E7012084F83C00B4
:101C200000BF0020206332462946204600F0A4FC75
:101C3000EBE70220E9E700BFFEE7000000B58FB048
:101C40001C220C4908A8FEF7BBFA002108A800F0E6
:101C500023FD094908601C2206491C3101A8FEF732
:101C6000AFFA002101A800F017FD044908600FB089
:101C700000BD0000C835000800000020040000205E
:101C800000B585B00020019002900390049000BF41
:101C90001D48806940F020001B4988610846806922
:101CA00000F02000009000BF00BF00BF0846806920
:101CB00040F0040088610846806900F0040000904C
:101CC00000BF00BF00BF0846806940F0080088617F
:101CD0000846806900F00800009000BF00BF0022A5
:101CE00042F220010948FEF75BFE42F2200001901B
:101CF00001200290022003900120049001A90348D2
:101D0000FEF7B4FC05B000BD00100240000C01401D
:101D100000B58DB0002009900A900B900C900790B0
:101D200008901C216846FEF764FA4FF080401F4976
:101D300008600F20486000211C48816044F61F6144
:101D4000C160002101618161FFF7FAFA08B1FEF775
:101D50008AFC4FF48050099009A91448FFF7D4FB7E
:101D600008B1FEF780FC1148FFF71DFE08B1FEF731
:101D70007AFC00200790089007A90C48FFF79EFA0C
:101D800008B1FEF770FC60200090002001900290E6
:101D90000490042269460548FFF787FD08B1FEF765
:101DA00062FC0248FFF700FD0DB000BD3C040020BE
:101DB00000B58DB0002009900A900B900C90079010
:101DC00008901C216846FEF714FA20482049086054
:101DD0000F20486000211E48816044F61F61C160E9
:101DE000002101618161FFF7ABFA08B1FEF73BFC0E
:101DF0004FF48050099009A91548FFF785FB08B1F9
:101E0000FEF731FC1248FFF7CEFD08B1FEF72BFCC0
:101E100000200790089007A90D48FFF74FFA08B176
:101E2000FEF721FC602000900020019002900490B9
:101E3000002269460648FFF738FD08B1FEF713FC9B
:101E40000348FFF7B1FC0DB000BD000000040040E6
:101E50008404002000B58DB0002009900A900B90FA
:101E60000C90079008901C216846FEF7C2F92C4898
:101E70002C4908600F20486000212A48816044F600
:101E80001F61C160002101618161FFF759FA08B14A
:101E9000FEF7E9FB4FF48050099009A92148FFF7AC
:101EA00033FB08B1FEF7DFFB1E48FFF77CFD08B1EE
:101EB000FEF7D9FB00200790089007A91948FFF703
:101EC000FDF908B1FEF7CFFB6020009000200190E3
:101ED00002900490002269461248FFF7E6FC08B120
:101EE000FEF7C1FB042269460E48FFF7DEFC08B18D
:101EF000FEF7B9FB082269460A48FFF7D6FC08B18D
:101F0000FEF7B1FB0C2269460648FFF7CEFC08B18C
:101F1000FEF7A9FB0348FFF747FC0DB000BD00002A
:101F200000080040CC04002010B50B480B490860A5
:101F30004FF4E1304860002108488160C1600161D0
:101F40000C21416100218161C161FFF7D8FD08B119
:101F5000FEF789FB10BD000000440040140500207E
:101F600000BFFEE700BFFEE708B508490968C908D9
:101F70004FF47A72B1FBF2F14143009100BF00BF10
:101F800000994A1E00920029F9D108BD14000020D2
:101F900010B54FF4FA741E48FFF744FA1D48FFF7D6
:101FA00041FA1C48FFF73EFA1A48FFF73BFA194876
:101FB000FFF738FA1848FFF735FA04211448FFF7FD
:101FC00027FD08211348FFF723FD0C211148FFF7D7
:101FD0001FFD00210F48FFF71BFD04210D48FFF7EF
:101FE00017FD00210C48FFF713FD094800688463C2
:101FF00008480068C463074800680464054800682E
:10200000446304480068846303480068446310BD67
:102010003C040020CC040020840400202DE9F84F6B
:1020200006460C460027062C22D2DFE804F00308FF
:102030000D12171C3A480068C06A07B219E0394807
:102040000068C06A07B214E036480068C06A07B288
:102050000FE034480068C06A07B20AE031480068FF
:10206000C06A07B205E030480068C06A07B200E005
:1020700000BF00BF2D493046FEF750F983464FF0B0
:102080007C51FEF7C1F882462949FEF747F981469F
:102090003846FEF781F949460090FEF70DF9804673
:1020A0004FF07E51FEF7B0F80546062C34D2DFE83B
:1020B00004F0030B131B232B2846FEF77BF980B299
:1020C00017490968886328E02846FEF773F980B24B
:1020D00014490968C86320E02846FEF76BF980B20E
:1020E00010490968086418E02846FEF763F980B2D1
:1020F0000C490968486310E02846FEF75BF980B296
:1021000008490968886308E02846FEF753F980B259
:1021100005490968486300E000BF00BFBDE8F88FCB
:102120003C040020CC040020840400200000B442C1
:102130000000A04100BF4FF400510448FEF726FC08
:102140004FF4FA7000F097FAF5E70000000C014038
:1021500010B500BF502080F31188BFF34F8FBFF33D
:102160006F8F00BF01F00AF918B14FF08050044999
:10217000086000BF002080F3118800BF10BD000080
:1021800004ED00E000B58FB0282105A8FEF731F876
:1021900014216846FEF72DF80120059000040690F2
:1021A000002007900120099002200C90C1030D919E
:1021B00000210E9105A8FEF74DFE08B1FEF753FA77
:1021C0000F200090022001900020029003900490C4
:1021D00000216846FEF7E6FC08B1FEF744FA0FB0AE
:1021E00000BD704710B50248FFF713FA10BD00009C
:1021F0005805002010B50268184B984208D0B0F17D
:10220000804F05D0164B984202D0164B984203D10E
:1022100022F070024B681A43104B984208D0B0F17C
:10222000804F05D00E4B984202D00E4B984203D1FE
:1022300022F44072CB681A4322F080034C6943EACF
:10224000040202608B68C3620B688362034B98428E
:1022500001D10B6903630123436110BD002C0140D0
:10226000000400400008004030B501F01F050124C3
:1022700004FA05F3046A9C430462046A01F01F0532
:1022800002FA05F52C43046230BD30B50C46816876
:1022900021F47F4142EA032525432943816030BD73
:1022A0000A46816821F0700142F0070319438160FA
:1022B0007047000030B5056A25F001050562026A25
:1022C0004368846924F0700424F003040D682C43EF
:1022D00022F002028D682A430D4DA84206D100BFAC
:1022E00022F00802CD682A4322F00402084DA842D9
:1022F00007D123F4807323F400734D692B438D6958
:102300002B43436084614D684563026230BD000029
:10231000002C014030B5056A25F010050562026AFF
:102320004368846924F4E04424F440740D6844EA6A
:10233000052422F020028D6842EA05120E4DA842C3
:1023400007D100BF22F08002CD6842EA051222F0D8
:102350004002094DA84209D123F4806323F40063AD
:102360004D6943EA85038D6943EA850343608461CF
:102370004D688563026230BD002C014030B5056AAE
:1023800025F480750562026A4368C46924F070040C
:1023900024F003040D682C4322F400728D6842EA95
:1023A00005220F4DA84207D100BF22F40062CD687C
:1023B00042EA052222F48062094DA84209D123F4A1
:1023C000805323F400534D6943EA05138D6943EAB2
:1023D00005134360C4614D68C563026230BD0000EF
:1023E000002C014030B5056A25F480550562036A6A
:1023F0004468C26922F4E04222F440720D6842EA65
:10240000052223F400538D6843EA0533064DA842A4
:1024100004D124F480444D6944EA85144460C261C7
:102420004D680564036230BD002C014030B50B4699
:102430001446026A056A25F001050562816921F0EA
:10244000F00141EA041122F00A021A43816102629A
:1024500030BD30B50B461446056A25F010050562FF
:102460008169026A21F4704141EA043122F0A0023C
:1024700042EA03128161026230BD000070B5044679
:102480002168096921F44051E26811432268116111
:102490002269A1681143626941EA02052168C9689D
:1024A00041F20C62914329432268D1602168496955
:1024B00021F44071A2691143226851612D4A2168BB
:1024C000914202D1FEF76CFC01E0FEF759FC00EBF3
:1024D000C00101EB001162689200B1FBF2F100EB68
:1024E000C00202EB001263689B00B2FBF3F26423AC
:1024F000B2FBF3F202EBC20303EB0212A1EB820187
:10250000322202EB01116422B1FBF2F101F0F00181
:1025100000EBC00202EB001263689B00B2FBF3F217
:102520006423B2FBF3F201EB021200EBC00101EBFA
:10253000001163689B00B1FBF3F100EBC00303EBF8
:1025400000136668B600B3FBF6F36426B3FBF6F33C
:1025500003EBC30606EB0313A1EB8301322303EB6A
:1025600001116423B1FBF3F101F00F011144226862
:10257000916070BD0038014010B5034699629A859C
:10258000DA8500201864222083F83E0000BF002076
:1025900083F83C0000BF1868C06840F480701C6875
:1025A000E0601868406940F001001C6860611868CC
:1025B000C06840F020001C68E060002010BD00BF33
:1025C000FEE7000002480068C0F3022070470000E8
:1025D0000CED00E010B5002804DB0A07130E054AD5
:1025E000135406E00A07140E034A00F00F031B1FE2
:1025F000D45410BD00E400E018ED00E002E008C88B
:10260000121F08C1002AFAD170477047002001E06C
:1026100001C1121F002AFBD170470000FEF7D8F954
:10262000FFF7B0FDFFF72CFBFFF77EFCFFF7C0FBC9
:10263000FFF76EFBFFF70EFC09480068C06840F02A
:10264000200007490968C860012206490448FFF7CD
:10265000D1FAFFF7F3FA00F01AF800BFFEE7000026
:10266000140500207F00002001460020842901D0AD
:10267000CA1C1044704770B5044625460DB1294662
:1026800000E00121084600F02BFC002070BD10B5D1
:1026900000F0BEFC002010BD7FB504460D46606909
:1026A00098B1A06988B1B4F90800FFF7DDFF0646CC
:1026B000D4E90510CDE9006102902B462269D4E9E6
:1026C000001000F0F9FD039013E0B4F90800FFF7E3
:1026D000CBFF064603A8CDE90060238A9AB22B46B9
:1026E000D4E9001000F0B6FD012802D0002004B0AB
:1026F00070BD0398FBE700002DE9F04105460E464A
:102700001F48076800201F49096881F852001D48CA
:102710000068001D00F0E8FA50B91A48006890F807
:102720002C1001208840184909688143164801602F
:10273000681C38B936B113480168091D134800F008
:102740001DFB1AE07C190F4800684460BC4207D2A8
:102750000C480168091D0E48006800F0F5FA0CE00D
:1027600008480168091D0B48006800F0EDFA0A48A6
:102770000068844201D208480460BDE8F08100008E
:102780002C00002018000020300000207C060020D3
:10279000200000201C0000204800002010B5044646
:1027A00000F0F8FA23480068401C224908602248DB
:1027B000006840B9204804600846006801280DD12F
:1027C00000F040F90AE01D48006838B91A4800686E
:1027D000C06AE16A884201D8174804601848006856
:1027E000401C1749086094F82C10012088401549B6
:1027F0000968084313490860E16A01EB8101124A44
:1028000002EB8100211D00F0B9FA00F0EDFA0B484F
:10281000006868B108480068C06AE16A884207D267
:102820004FF0805009490860BFF34F8FBFF36F8F9F
:1028300010BD0000280000201800002034000020F7
:102840004400002030000020A005002004ED00E03E
:1028500010B516E000F09EFA0C48C068C468201D50
:1028600000F042FA0A480068401E09490860094819
:102870000068401E0749086000F0B6FA204600F0E4
:102880000BF8044800680028E4D110BD6806002059
:10289000280000202400002010B5044694F85100C0
:1028A00030B9206B00F0BEFA204600F0BBFA1AE007
:1028B00094F85100012803D1204600F0B3FA12E049
:1028C00094F85100022801D1012000E0002050B905
:1028D00000BF502080F31188BFF34F8FBFF36F8F7D
:1028E00000BF00BFFEE710BD30B54FF4406317488E
:1028F00000F007042CB1C01D20F00700134C041B8E
:102900001B1B0246124C22600024114D6C60D01833
:10291000083820F007000F4C206000240D4D2D6872
:102920006C600C4D2D682C601146441A4C60094CAB
:1029300024680C60084D4C682C60084D4C682C6075
:102940004FF00044064D2C6030BD00009006002082
:10295000540000205C000020640000206000002083
:102960006800002000BFFFF773FF064800680128D9
:10297000F9D94FF0805004490860BFF34F8FBFF37F
:102980006F8FF0E7A005002004ED00E02DE9F05F77
:1029900082460F4690469B460A9E0C9C4FEA880151
:1029A000A522206BFDF71EFCA8F10100216B01EBB5
:1029B000800929F0070909F0070008B9012000E0A3
:1029C000002050B900BF502080F31188BFF34F8F13
:1029D000BFF36F8F00BF00BFFEE7002507E0795D02
:1029E00004F134004155785D00B902E06D1C102DF2
:1029F000F5D300BF002143200155072E00D3062642
:102A0000E66266640020A064201D00F09AF904F1DB
:102A1000180000F096F92461C6F10700A061646215
:102A20000020E06484F8500084F852005A46514671
:102A3000484600F047F920600B9808B10B980460F5
:102A4000BDE8F09F10B5002407E004EB84010F4AB5
:102A500002EB810000F068F9641C072CF5D30C48E8
:102A600000F062F90B4800F05FF90B4800F05CF9E8
:102A70000A4800F059F90A4800F056F90448094993
:102A8000086004480849086010BD0000A005002047
:102A90002C06002040060020540600206806002076
:102AA0007C0600201C0000202000002010B50146FC
:102AB000164800E0006803688B42FBD30246436877
:102AC00013448B4204D143684C682344436001465D
:102AD0000A464B6813440468A34211D10C4C0368A6
:102AE0002468A34208D04B680468646823444B60A0
:102AF00003681B680B6005E0054B1B680B6001E079
:102B000003680B60884200D0016010BD54000020B3
:102B10005C0000200A490968096809B9012100E040
:102B2000002121B14FF0FF31064A116006E004494F
:102B30000968C968C868034A4168116070470000A5
:102B40001C000020480000200E480068401C08B906
:102B5000012000E0002050B900BF502080F3118810
:102B6000BFF34F8FBFF36F8F00BF00BFFEE700BF03
:102B7000502080F31188BFF34F8FBFF36F8F00BFDA
:102B800000BFFEE76C0000202DE9F04104464FF045
:102B9000000800F095FA4648006808B9FFF7A4FE5F
:102BA00044480068204000286BD1D4B1083404F0B8
:102BB0000700B0B104F00700C0F10800044404F0BD
:102BC000070008B9012000E0002050B900BF5020E4
:102BD00080F31188BFF34F8FBFF36F8F00BF00BF2B
:102BE000FEE7002C4DD034480068844249D8334E6B
:102BF0003046056801E02E462D686868A04202D282
:102C000028680028F7D12A480068854239D0306802
:102C100000F10808286830606868001B102819D97E
:102C20002F1907F0070008B9012000E0002050B973
:102C300000BF502080F31188BFF34F8FBFF36F8F19
:102C400000BF00BFFEE76868001B78606C60384614
:102C5000FFF72CFF184968680968081A16490860C8
:102C60000846006816490968884203D2124800687D
:102C7000134908600F4968680968084368600020C4
:102C8000286000F01FFC08F0070008B9012000E0F0
:102C9000002050B900BF502080F31188BFF34F8F40
:102CA000BFF36F8F00BF00BFFEE74046BDE8F08175
:102CB0005C0000206800002060000020540000201C
:102CC00064000020001F4FF080730360001F21F09C
:102CD00001030360001F034B0360143802602038B7
:102CE00070470000492B000801460A69D1E901300C
:102CF0009860D1E9010358605068884201D1886822
:102D00005060002008611068401E10601068704715
:102D1000034B0360034B0B6080231360704700007C
:102D2000E80100203C02002000F1080141604FF062
:102D3000FF31816000F10801C16001610021016083
:102D4000704700210161704710B502460B685C1C9A
:102D50000CB9106907E002F1080000E0406844681F
:102D600024689C42FAD944684C604C68A160886031
:102D700041600A611468641C146010BD42684A60B6
:102D800093688B60936859609160086103685B1C6D
:102D90000360704700BF502080F31188BFF34F8F4E
:102DA000BFF36F8F00BF0E480068401C0C490860DD
:102DB00008460068012812D10A480068C0B208B964
:102DC000012000E0002050B900BF502080F311889E
:102DD000BFF34F8FBFF36F8F00BF00BFFEE7704799
:102DE0006C00002004ED00E00D48006850B900BF01
:102DF000502080F31188BFF34F8FBFF36F8F00BF58
:102E000000BFFEE706480068401E05490860084606
:102E1000006820B9002080F3118800BF00BF704710
:102E20006C00002070B506463546002E3FD0083DA8
:102E30002C461F4960680968084008B1012000E07D
:102E4000002050B900BF502080F31188BFF34F8F8E
:102E5000BFF36F8F00BF00BFFEE7206808B90120F5
:102E600000E0002050B900BF502080F31188BFF36C
:102E70004F8FBFF36F8F00BF00BFFEE70C49606844
:102E80000968084098B1206888B9094960680968EC
:102E90008843606000F014F90649606809680844D6
:102EA000044908602046FFF701FE00F00BFB70BDEF
:102EB000680000206000002000204FF0E021086141
:102EC0008861064800684FF47A71B0FBF1F0401E4B
:102ED0004FF0E0214861072008617047140000208E
:102EE00070B504460025D4B11248006808B9012025
:102EF00000E0002050B900BF502080F31188BFF3DC
:102F00004F8FBFF36F8F00BF00BFFEE700F0D8F810
:102F100000212046FFF7F0FB00F0D4FA05463DB94A
:102F20004FF0805004490860BFF34F8FBFF36F8F9D
:102F300070BD00005000002004ED00E02DE9F047D6
:102F400004460F464FF0000954B900BF502080F3EB
:102F50001188BFF34F8FBFF36F8F00BF00BFFEE735
:102F60000FB1012000E0002050B900BF502080F3D5
:102F70001188BFF34F8FBFF36F8F00BF00BFFEE715
:102F80002048006808B9012000E0002050B900BFC7
:102F9000502080F31188BFF34F8FBFF36F8F00BFB6
:102FA00000BFFEE700F08CF8174806682068C519D6
:102FB0002068B04207D92068A8420BD9B54209D988
:102FC0004FF0010906E02068A84201D8B54201D9B6
:102FD0004FF001092560B9F1000F03D0A81B0021B3
:102FE000FFF78AFB00F06EFA8046B8F1000F07D1B8
:102FF0004FF0805005490860BFF34F8FBFF36F8FCC
:10300000BDE8F087500000202C00002004ED00E017
:1030100010B586B000200590049003AA04A905A865
:10302000FFF776FE0022DDE904101346CDE900210A
:1030300002901CA11D48039A00F03EF91C4908604B
:103040000846006808B1012400E00024012C15D1D5
:1030500000BF502080F31188BFF34F8FBFF36F8FF5
:1030600000BF4FF0FF30134908600120124908608B
:1030700000201249086000F071F810E0601C08B1EF
:10308000012000E0002050B900BF502080F31188DB
:10309000BFF34F8FBFF36F8F00BF00BFFEE706B0D7
:1030A00010BD000049444C4500000000652900089F
:1030B0004C00002048000020340000202C0000209C
:1030C00002480068401C0149086070475000002019
:1030D0001D48006818B101201C49086032E000203A
:1030E0001A4908601A480068B0FA80F0C0F11F0160
:1030F00001EB8100174A52F8200008B1012000E0DE
:10310000002050B900BF502080F31188BFF34F8FCB
:10311000BFF36F8F00BF00BFFEE701EB81020D4BD5
:1031200003EB820042685268426000F10802436883
:10313000934202D14268526842604268D268064BAC
:103140001A6000BF70470000500000203C000020C3
:1031500030000020A0050020180000201CB53849D0
:10316000084600780190FF200A4610700846007853
:1031700000909DF8000000F0F0009DF800209042C3
:1031800001D1012000E0002050B900BF502080F3A1
:103190001188BFF34F8FBFF36F8F00BF00BFFEE7F3
:1031A0009DF8000000F05000264A10700720264AC3
:1031B000106009E024480068401E234A10609DF812
:1031C00000004006000E00909DF8000000F0800016
:1031D0008028EFD01C480068C0F10700042801D106
:1031E000012000E0002050B900BF502080F311887A
:1031F000BFF34F8FBFF36F8F00BF00BFFEE71248D2
:1032000000680002104A10601046008800F4E06078
:1032100010600B4A019810700C48006840F4700070
:103220000A4908600846006840F070400860FFF7EF
:1032300043FE002006490860FCF776FF00201CBD15
:1032400000E400E0700000207400002020ED00E0A9
:103250006C0000202DE9FF4F85B080468946174657
:10326000DDE912ABB800FFF78FFC064656B15420DB
:10327000FFF78AFC04460CB1266304E03046FFF7F2
:10328000D1FD00E000248CB1002084F85100CDE98C
:1032900000ABCDE902403A4649464046089BFFF75D
:1032A00075FB2046FFF77AFA012501E04FF0FF3564
:1032B000284609B0BDE8F08F2DE9F04F85B00746EC
:1032C000884691469A46DDE90EB6109C0EB1012063
:1032D00000E0002050B900BF502080F31188BFF3F8
:1032E0004F8FBFF36F8F00BF00BFFEE70CB101200F
:1032F00000E0002050B900BF502080F31188BFF3D8
:103300004F8FBFF36F8F00BF00BFFEE754200390C5
:103310000398542801D1012000E0002050B900BFDB
:10332000502080F31188BFF34F8FBFF36F8F00BF22
:1033300000BFFEE7B4B1AEB125462C462E63022095
:1033400085F85100002004A953464A46CDE900B152
:10335000CDE9025041463846FFF718FB2846FFF7F3
:103360001DFA01E000200490049805B0BDE8F08F3C
:1033700001490868704700002C0000202DE9F04149
:103380004FF0000844480068002877D1434800689F
:10339000451C4248056015BB41480068006808B9F3
:1033A000012000E0002050B900BF502080F31188B8
:1033B000BFF34F8FBFF36F8F00BF00BFFEE73848EA
:1033C000076838480068364908603648076036485C
:1033D0000068401C34490860FFF79CFB00BF33487D
:1033E000006885423CD300BF2D480068006808B9DA
:1033F000012000E0002020B14FF0FF302B49086091
:103400002DE027480068C068C4686668B54202D2EB
:103410002648066023E0201DFFF766FCA06A18B16D
:1034200004F11800FFF760FC94F82C10012088408C
:103430001F49096808431E490860E16A01EB8101E0
:103440001C4A02EB8100211DFFF798FC1A49E06A33
:103450000968C96A8842C7D34FF00108C4E700BFB2
:1034600015480068C06A00EB8000124951F820003E
:10347000012801D94FF0010805E0FFE70F48006877
:10348000401C0E4908600E48006808B14FF0010862
:103490004046BDE8F0810000500000202C000020D4
:1034A0001C000020200000204000002048000020D8
:1034B00030000020A0050020180000203800002067
:1034C0003C00002070B5002400263648006850B942
:1034D00000BF502080F31188BFF34F8FBFF36F8F71
:1034E00000BF00BFFEE7FFF755FC2E480068401EF6
:1034F0002C4908600846006800284FD12A48006817
:1035000000284BD024E02948C068C46804F11800A2
:10351000FFF7EAFB201DFFF7E7FB94F82C100120D2
:10352000884023490968084321490860E16A01EBA2
:103530008101204A02EB8100211DFFF71FFC1E497B
:10354000E06A0968C96A884202D301201B49086001
:103550001648006808B9012000E000200028D2D0F9
:103560000CB1FFF7D7FA1648056865B100BFFFF741
:1035700005FF10B10120114908606D1E002DF6D124
:1035800000200F4908600D48006838B10126300757
:103590000C490860BFF34F8FBFF36F8FFFF724FC18
:1035A000304670BD50000020280000205406002046
:1035B00030000020A0050020180000203C00002062
:1035C0003800002004ED00E0243600083521000812
:1035D000FFFF00000000000080000000000000006D
:1035E0000000000018360008CD04000802000000AA
:1035F000000000008000000000000000000000004B
:103600000000000000000000010203040607080992
:103610000000000001020304636F6E74726F6C544B
:1036200061736B0064656661756C745461736B00E3
:103630005036000800000020E80100007004000877
:1036400094360008E8010020D01400000C26000881
:10365000C132104201035524F41AAA0101120B2CA5
:103660002041081AA0084B7A44100B20C842080ACF
:103670002DF0301A2004092A300A2D48300A2D7006
:10368000300A318C90296429381AA0041AB4040332
:0436900000C842002C
:04000005080000ED02
:00000001FF
